{
  "_format": "hh-sol-artifact-1",
  "contractName": "DeFiBank",
  "sourceName": "contracts/flatten.sol",
  "abi": [
    {
      "anonymous": false,
      "inputs": [
        {
          "indexed": true,
          "internalType": "address",
          "name": "owner",
          "type": "address"
        },
        {
          "indexed": true,
          "internalType": "address",
          "name": "spender",
          "type": "address"
        },
        {
          "indexed": false,
          "internalType": "uint256",
          "name": "value",
          "type": "uint256"
        }
      ],
      "name": "Approval",
      "type": "event"
    },
    {
      "anonymous": false,
      "inputs": [
        {
          "indexed": true,
          "internalType": "address",
          "name": "from",
          "type": "address"
        },
        {
          "indexed": true,
          "internalType": "address",
          "name": "to",
          "type": "address"
        },
        {
          "indexed": false,
          "internalType": "uint256",
          "name": "value",
          "type": "uint256"
        }
      ],
      "name": "Transfer",
      "type": "event"
    },
    {
      "inputs": [
        {
          "internalType": "address",
          "name": "owner",
          "type": "address"
        },
        {
          "internalType": "address",
          "name": "spender",
          "type": "address"
        }
      ],
      "name": "allowance",
      "outputs": [
        {
          "internalType": "uint256",
          "name": "",
          "type": "uint256"
        }
      ],
      "stateMutability": "view",
      "type": "function"
    },
    {
      "inputs": [
        {
          "internalType": "address",
          "name": "spender",
          "type": "address"
        },
        {
          "internalType": "uint256",
          "name": "amount",
          "type": "uint256"
        }
      ],
      "name": "approve",
      "outputs": [
        {
          "internalType": "bool",
          "name": "",
          "type": "bool"
        }
      ],
      "stateMutability": "nonpayable",
      "type": "function"
    },
    {
      "inputs": [
        {
          "internalType": "address",
          "name": "account",
          "type": "address"
        }
      ],
      "name": "balanceOf",
      "outputs": [
        {
          "internalType": "uint256",
          "name": "",
          "type": "uint256"
        }
      ],
      "stateMutability": "view",
      "type": "function"
    },
    {
      "inputs": [],
      "name": "decimals",
      "outputs": [
        {
          "internalType": "uint8",
          "name": "",
          "type": "uint8"
        }
      ],
      "stateMutability": "view",
      "type": "function"
    },
    {
      "inputs": [
        {
          "internalType": "address",
          "name": "spender",
          "type": "address"
        },
        {
          "internalType": "uint256",
          "name": "subtractedValue",
          "type": "uint256"
        }
      ],
      "name": "decreaseAllowance",
      "outputs": [
        {
          "internalType": "bool",
          "name": "",
          "type": "bool"
        }
      ],
      "stateMutability": "nonpayable",
      "type": "function"
    },
    {
      "inputs": [],
      "name": "deposited",
      "outputs": [
        {
          "internalType": "uint256",
          "name": "",
          "type": "uint256"
        }
      ],
      "stateMutability": "view",
      "type": "function"
    },
    {
      "inputs": [
        {
          "internalType": "address",
          "name": "",
          "type": "address"
        }
      ],
      "name": "deposits",
      "outputs": [
        {
          "internalType": "uint256",
          "name": "",
          "type": "uint256"
        }
      ],
      "stateMutability": "view",
      "type": "function"
    },
    {
      "inputs": [],
      "name": "dividends",
      "outputs": [
        {
          "internalType": "uint256",
          "name": "",
          "type": "uint256"
        }
      ],
      "stateMutability": "view",
      "type": "function"
    },
    {
      "inputs": [
        {
          "internalType": "uint256",
          "name": "amount",
          "type": "uint256"
        }
      ],
      "name": "getLoan",
      "outputs": [],
      "stateMutability": "nonpayable",
      "type": "function"
    },
    {
      "inputs": [
        {
          "internalType": "address",
          "name": "spender",
          "type": "address"
        },
        {
          "internalType": "uint256",
          "name": "addedValue",
          "type": "uint256"
        }
      ],
      "name": "increaseAllowance",
      "outputs": [
        {
          "internalType": "bool",
          "name": "",
          "type": "bool"
        }
      ],
      "stateMutability": "nonpayable",
      "type": "function"
    },
    {
      "inputs": [],
      "name": "lended",
      "outputs": [
        {
          "internalType": "uint256",
          "name": "",
          "type": "uint256"
        }
      ],
      "stateMutability": "view",
      "type": "function"
    },
    {
      "inputs": [
        {
          "internalType": "address",
          "name": "",
          "type": "address"
        }
      ],
      "name": "loans",
      "outputs": [
        {
          "internalType": "uint256",
          "name": "amount",
          "type": "uint256"
        },
        {
          "internalType": "uint256",
          "name": "time",
          "type": "uint256"
        }
      ],
      "stateMutability": "view",
      "type": "function"
    },
    {
      "inputs": [],
      "name": "name",
      "outputs": [
        {
          "internalType": "string",
          "name": "",
          "type": "string"
        }
      ],
      "stateMutability": "view",
      "type": "function"
    },
    {
      "inputs": [],
      "name": "payLoan",
      "outputs": [],
      "stateMutability": "payable",
      "type": "function"
    },
    {
      "inputs": [],
      "name": "provideLiquidity",
      "outputs": [],
      "stateMutability": "payable",
      "type": "function"
    },
    {
      "inputs": [],
      "name": "symbol",
      "outputs": [
        {
          "internalType": "string",
          "name": "",
          "type": "string"
        }
      ],
      "stateMutability": "view",
      "type": "function"
    },
    {
      "inputs": [],
      "name": "totalReleased",
      "outputs": [
        {
          "internalType": "uint256",
          "name": "",
          "type": "uint256"
        }
      ],
      "stateMutability": "view",
      "type": "function"
    },
    {
      "inputs": [],
      "name": "totalSupply",
      "outputs": [
        {
          "internalType": "uint256",
          "name": "",
          "type": "uint256"
        }
      ],
      "stateMutability": "view",
      "type": "function"
    },
    {
      "inputs": [
        {
          "internalType": "address",
          "name": "recipient",
          "type": "address"
        },
        {
          "internalType": "uint256",
          "name": "amount",
          "type": "uint256"
        }
      ],
      "name": "transfer",
      "outputs": [
        {
          "internalType": "bool",
          "name": "",
          "type": "bool"
        }
      ],
      "stateMutability": "nonpayable",
      "type": "function"
    },
    {
      "inputs": [
        {
          "internalType": "address",
          "name": "sender",
          "type": "address"
        },
        {
          "internalType": "address",
          "name": "recipient",
          "type": "address"
        },
        {
          "internalType": "uint256",
          "name": "amount",
          "type": "uint256"
        }
      ],
      "name": "transferFrom",
      "outputs": [
        {
          "internalType": "bool",
          "name": "",
          "type": "bool"
        }
      ],
      "stateMutability": "nonpayable",
      "type": "function"
    },
    {
      "inputs": [],
      "name": "viewLoanAmount",
      "outputs": [
        {
          "internalType": "uint256",
          "name": "",
          "type": "uint256"
        }
      ],
      "stateMutability": "view",
      "type": "function"
    },
    {
      "inputs": [],
      "name": "withdrawEarnings",
      "outputs": [],
      "stateMutability": "nonpayable",
      "type": "function"
    },
    {
      "inputs": [
        {
          "internalType": "uint256",
          "name": "amount",
          "type": "uint256"
        }
      ],
      "name": "withdrawLiquidity",
      "outputs": [],
      "stateMutability": "nonpayable",
      "type": "function"
    }
  ],
  "bytecode": "0x60806040526040518060400160405280600d81526020017f5269656d616e6e20546f6b656e00000000000000000000000000000000000000815250600590805190602001906200005192919062000290565b506040518060400160405280600481526020017f72544f4b00000000000000000000000000000000000000000000000000000000815250600690805190602001906200009f92919062000290565b506000600755348015620000b257600080fd5b5060056003908054620000c590620004c7565b620000d292919062000321565b5060066004908054620000e590620004c7565b620000f292919062000321565b5062000107336007546200010d60201b60201c565b62000584565b600073ffffffffffffffffffffffffffffffffffffffff168273ffffffffffffffffffffffffffffffffffffffff16141562000180576040517f08c379a0000000000000000000000000000000000000000000000000000000008152600401620001779062000410565b60405180910390fd5b62000194600083836200028660201b60201c565b8060026000828254620001a8919062000460565b92505081905550806000808473ffffffffffffffffffffffffffffffffffffffff1673ffffffffffffffffffffffffffffffffffffffff1681526020019081526020016000206000828254620001ff919062000460565b925050819055508173ffffffffffffffffffffffffffffffffffffffff16600073ffffffffffffffffffffffffffffffffffffffff167fddf252ad1be2c89b69c2b068fc378daa952ba7f163c4a11628f55a4df523b3ef8360405162000266919062000432565b60405180910390a362000282600083836200028b60201b60201c565b5050565b505050565b505050565b8280546200029e90620004c7565b90600052602060002090601f016020900481019282620002c257600085556200030e565b82601f10620002dd57805160ff19168380011785556200030e565b828001600101855582156200030e579182015b828111156200030d578251825591602001919060010190620002f0565b5b5090506200031d9190620003b9565b5090565b8280546200032f90620004c7565b90600052602060002090601f016020900481019282620003535760008555620003a6565b82601f10620003665780548555620003a6565b82800160010185558215620003a657600052602060002091601f016020900482015b82811115620003a557825482559160010191906001019062000388565b5b509050620003b59190620003b9565b5090565b5b80821115620003d4576000816000905550600101620003ba565b5090565b6000620003e7601f836200044f565b9150620003f4826200055b565b602082019050919050565b6200040a81620004bd565b82525050565b600060208201905081810360008301526200042b81620003d8565b9050919050565b6000602082019050620004496000830184620003ff565b92915050565b600082825260208201905092915050565b60006200046d82620004bd565b91506200047a83620004bd565b9250827fffffffffffffffffffffffffffffffffffffffffffffffffffffffffffffffff03821115620004b257620004b1620004fd565b5b828201905092915050565b6000819050919050565b60006002820490506001821680620004e057607f821691505b60208210811415620004f757620004f66200052c565b5b50919050565b7f4e487b7100000000000000000000000000000000000000000000000000000000600052601160045260246000fd5b7f4e487b7100000000000000000000000000000000000000000000000000000000600052602260045260246000fd5b7f45524332303a206d696e7420746f20746865207a65726f206164647265737300600082015250565b61265680620005946000396000f3fe6080604052600436106101405760003560e01c8063504006ca116100b6578063a9059cbb1161006f578063a9059cbb14610447578063b73c6ce914610484578063dd62ed3e1461049b578063e33b7de3146104d8578063eef49ee314610503578063fc7e286d1461052e57610140565b8063504006ca1461033157806360c97b221461035a57806370a082311461036457806373b4086b146103a157806395d89b41146103df578063a457c2d71461040a57610140565b806323b872dd1161010857806323b872dd1461022c5780632f765d8114610269578063313ce5671461029457806335d97405146102bf57806339509351146102ea578063472eb03d1461032757610140565b806306fdde0314610145578063095ea7b3146101705780630a861f2a146101ad57806315d0e1d0146101d657806318160ddd14610201575b600080fd5b34801561015157600080fd5b5061015a61056b565b6040516101679190611dd5565b60405180910390f35b34801561017c57600080fd5b5061019760048036038101906101929190611b43565b6105fd565b6040516101a49190611dba565b60405180910390f35b3480156101b957600080fd5b506101d460048036038101906101cf9190611b83565b61061b565b005b3480156101e257600080fd5b506101eb61072a565b6040516101f89190611f77565b60405180910390f35b34801561020d57600080fd5b50610216610730565b6040516102239190611f77565b60405180910390f35b34801561023857600080fd5b50610253600480360381019061024e9190611af0565b61073a565b6040516102609190611dba565b60405180910390f35b34801561027557600080fd5b5061027e610859565b60405161028b9190611f77565b60405180910390f35b3480156102a057600080fd5b506102a9610908565b6040516102b69190611fbb565b60405180910390f35b3480156102cb57600080fd5b506102d4610911565b6040516102e19190611f77565b60405180910390f35b3480156102f657600080fd5b50610311600480360381019061030c9190611b43565b610917565b60405161031e9190611dba565b60405180910390f35b61032f6109c3565b005b34801561033d57600080fd5b5061035860048036038101906103539190611b83565b610bd6565b005b610362610cd6565b005b34801561037057600080fd5b5061038b60048036038101906103869190611a83565b610d51565b6040516103989190611f77565b60405180910390f35b3480156103ad57600080fd5b506103c860048036038101906103c39190611a83565b610d99565b6040516103d6929190611f92565b60405180910390f35b3480156103eb57600080fd5b506103f4610dbd565b6040516104019190611dd5565b60405180910390f35b34801561041657600080fd5b50610431600480360381019061042c9190611b43565b610e4f565b60405161043e9190611dba565b60405180910390f35b34801561045357600080fd5b5061046e60048036038101906104699190611b43565b610f3a565b60405161047b9190611dba565b60405180910390f35b34801561049057600080fd5b50610499610f58565b005b3480156104a757600080fd5b506104c260048036038101906104bd9190611ab0565b611192565b6040516104cf9190611f77565b60405180910390f35b3480156104e457600080fd5b506104ed611219565b6040516104fa9190611f77565b60405180910390f35b34801561050f57600080fd5b5061051861121f565b6040516105259190611f77565b60405180910390f35b34801561053a57600080fd5b5061055560048036038101906105509190611a83565b611225565b6040516105629190611f77565b60405180910390f35b60606003805461057a9061218f565b80601f01602080910402602001604051908101604052809291908181526020018280546105a69061218f565b80156105f35780601f106105c8576101008083540402835291602001916105f3565b820191906000526020600020905b8154815290600101906020018083116105d657829003601f168201915b5050505050905090565b600061061161060a61123d565b8484611245565b6001905092915050565b80600d60003373ffffffffffffffffffffffffffffffffffffffff1673ffffffffffffffffffffffffffffffffffffffff16815260200190815260200160002054101561066757600080fd5b80600d60003373ffffffffffffffffffffffffffffffffffffffff1673ffffffffffffffffffffffffffffffffffffffff16815260200190815260200160002060008282546106b691906120d3565b9250508190555080600860008282546106cf91906120d3565b925050819055506106e03382611410565b3373ffffffffffffffffffffffffffffffffffffffff166108fc829081150290604051600060405180830381858888f19350505050158015610726573d6000803e3d6000fd5b5050565b60095481565b6000600254905090565b600080600160008673ffffffffffffffffffffffffffffffffffffffff1673ffffffffffffffffffffffffffffffffffffffff168152602001908152602001600020600061078661123d565b73ffffffffffffffffffffffffffffffffffffffff1673ffffffffffffffffffffffffffffffffffffffff1681526020019081526020016000205490507fffffffffffffffffffffffffffffffffffffffffffffffffffffffffffffffff8114610842578281101561082d576040517f08c379a000000000000000000000000000000000000000000000000000000000815260040161082490611e97565b60405180910390fd5b6108418561083961123d565b858403611245565b5b61084d8585856115e7565b60019150509392505050565b60008060095460085461086c91906120d3565b90506000600c60003373ffffffffffffffffffffffffffffffffffffffff1673ffffffffffffffffffffffffffffffffffffffff168152602001908152602001600020600001549050600082826008546108c69190612079565b6108d09190612048565b9050600082826108e091906120d3565b905060006108ed82611868565b905080836108fb9190611ff2565b9250829550505050505090565b60006012905090565b600a5481565b60006109b961092461123d565b84846001600061093261123d565b73ffffffffffffffffffffffffffffffffffffffff1673ffffffffffffffffffffffffffffffffffffffff16815260200190815260200160002060008873ffffffffffffffffffffffffffffffffffffffff1673ffffffffffffffffffffffffffffffffffffffff168152602001908152602001600020546109b49190611ff2565b611245565b6001905092915050565b60006009546008546109d591906120d3565b90506000600c60003373ffffffffffffffffffffffffffffffffffffffff1673ffffffffffffffffffffffffffffffffffffffff16815260200190815260200160002060000154905060008282600854610a2f9190612079565b610a399190612048565b905060008282610a4991906120d3565b90506000610a5682611868565b90508083610a649190611ff2565b925082341015610a7357600080fd5b600c60003373ffffffffffffffffffffffffffffffffffffffff1673ffffffffffffffffffffffffffffffffffffffff1681526020019081526020016000206000015483610ac191906120d3565b600a6000828254610ad29190611ff2565b92505081905550600c60003373ffffffffffffffffffffffffffffffffffffffff1673ffffffffffffffffffffffffffffffffffffffff1681526020019081526020016000206000015460096000828254610b2d91906120d3565b92505081905550600c60003373ffffffffffffffffffffffffffffffffffffffff1673ffffffffffffffffffffffffffffffffffffffff16815260200190815260200160002060000154600c60003373ffffffffffffffffffffffffffffffffffffffff1673ffffffffffffffffffffffffffffffffffffffff1681526020019081526020016000206000016000828254610bc891906120d3565b925050819055505050505050565b600854811115610be557600080fd5b80600c60003373ffffffffffffffffffffffffffffffffffffffff1673ffffffffffffffffffffffffffffffffffffffff1681526020019081526020016000206000018190555042600c60003373ffffffffffffffffffffffffffffffffffffffff1673ffffffffffffffffffffffffffffffffffffffff168152602001908152602001600020600101819055508060096000828254610c859190611ff2565b925050819055503373ffffffffffffffffffffffffffffffffffffffff166108fc829081150290604051600060405180830381858888f19350505050158015610cd2573d6000803e3d6000fd5b5050565b34600d60003373ffffffffffffffffffffffffffffffffffffffff1673ffffffffffffffffffffffffffffffffffffffff1681526020019081526020016000206000828254610d259190611ff2565b925050819055503460086000828254610d3e9190611ff2565b92505081905550610d4f33346118ef565b565b60008060008373ffffffffffffffffffffffffffffffffffffffff1673ffffffffffffffffffffffffffffffffffffffff168152602001908152602001600020549050919050565b600c6020528060005260406000206000915090508060000154908060010154905082565b606060048054610dcc9061218f565b80601f0160208091040260200160405190810160405280929190818152602001828054610df89061218f565b8015610e455780601f10610e1a57610100808354040283529160200191610e45565b820191906000526020600020905b815481529060010190602001808311610e2857829003601f168201915b5050505050905090565b60008060016000610e5e61123d565b73ffffffffffffffffffffffffffffffffffffffff1673ffffffffffffffffffffffffffffffffffffffff16815260200190815260200160002060008573ffffffffffffffffffffffffffffffffffffffff1673ffffffffffffffffffffffffffffffffffffffff16815260200190815260200160002054905082811015610f1b576040517f08c379a0000000000000000000000000000000000000000000000000000000008152600401610f1290611f37565b60405180910390fd5b610f2f610f2661123d565b85858403611245565b600191505092915050565b6000610f4e610f4761123d565b84846115e7565b6001905092915050565b6000600d60003373ffffffffffffffffffffffffffffffffffffffff1673ffffffffffffffffffffffffffffffffffffffff1681526020019081526020016000205411610fda576040517f08c379a0000000000000000000000000000000000000000000000000000000008152600401610fd190611f17565b60405180910390fd5b6000600b54600a54610fec9190611ff2565b90506000600e60003373ffffffffffffffffffffffffffffffffffffffff1673ffffffffffffffffffffffffffffffffffffffff16815260200190815260200160002054600854600d60003373ffffffffffffffffffffffffffffffffffffffff1673ffffffffffffffffffffffffffffffffffffffff168152602001908152602001600020548461107e9190612079565b6110889190612048565b61109291906120d3565b905060008114156110d8576040517f08c379a00000000000000000000000000000000000000000000000000000000081526004016110cf90611e77565b60405180910390fd5b80600e60003373ffffffffffffffffffffffffffffffffffffffff1673ffffffffffffffffffffffffffffffffffffffff16815260200190815260200160002060008282546111279190611ff2565b9250508190555080600b60008282546111409190611ff2565b925050819055503373ffffffffffffffffffffffffffffffffffffffff166108fc829081150290604051600060405180830381858888f1935050505015801561118d573d6000803e3d6000fd5b505050565b6000600160008473ffffffffffffffffffffffffffffffffffffffff1673ffffffffffffffffffffffffffffffffffffffff16815260200190815260200160002060008373ffffffffffffffffffffffffffffffffffffffff1673ffffffffffffffffffffffffffffffffffffffff16815260200190815260200160002054905092915050565b600b5481565b60085481565b600d6020528060005260406000206000915090505481565b600033905090565b600073ffffffffffffffffffffffffffffffffffffffff168373ffffffffffffffffffffffffffffffffffffffff1614156112b5576040517f08c379a00000000000000000000000000000000000000000000000000000000081526004016112ac90611ef7565b60405180910390fd5b600073ffffffffffffffffffffffffffffffffffffffff168273ffffffffffffffffffffffffffffffffffffffff161415611325576040517f08c379a000000000000000000000000000000000000000000000000000000000815260040161131c90611e37565b60405180910390fd5b80600160008573ffffffffffffffffffffffffffffffffffffffff1673ffffffffffffffffffffffffffffffffffffffff16815260200190815260200160002060008473ffffffffffffffffffffffffffffffffffffffff1673ffffffffffffffffffffffffffffffffffffffff168152602001908152602001600020819055508173ffffffffffffffffffffffffffffffffffffffff168373ffffffffffffffffffffffffffffffffffffffff167f8c5be1e5ebec7d5bd14f71427d1e84f3dd0314c0f7b2291e5b200ac8c7c3b925836040516114039190611f77565b60405180910390a3505050565b600073ffffffffffffffffffffffffffffffffffffffff168273ffffffffffffffffffffffffffffffffffffffff161415611480576040517f08c379a000000000000000000000000000000000000000000000000000000000815260040161147790611eb7565b60405180910390fd5b61148c82600083611a4f565b60008060008473ffffffffffffffffffffffffffffffffffffffff1673ffffffffffffffffffffffffffffffffffffffff16815260200190815260200160002054905081811015611512576040517f08c379a000000000000000000000000000000000000000000000000000000000815260040161150990611e17565b60405180910390fd5b8181036000808573ffffffffffffffffffffffffffffffffffffffff1673ffffffffffffffffffffffffffffffffffffffff16815260200190815260200160002081905550816002600082825461156991906120d3565b92505081905550600073ffffffffffffffffffffffffffffffffffffffff168373ffffffffffffffffffffffffffffffffffffffff167fddf252ad1be2c89b69c2b068fc378daa952ba7f163c4a11628f55a4df523b3ef846040516115ce9190611f77565b60405180910390a36115e283600084611a54565b505050565b600073ffffffffffffffffffffffffffffffffffffffff168373ffffffffffffffffffffffffffffffffffffffff161415611657576040517f08c379a000000000000000000000000000000000000000000000000000000000815260040161164e90611ed7565b60405180910390fd5b600073ffffffffffffffffffffffffffffffffffffffff168273ffffffffffffffffffffffffffffffffffffffff1614156116c7576040517f08c379a00000000000000000000000000000000000000000000000000000000081526004016116be90611df7565b60405180910390fd5b6116d2838383611a4f565b60008060008573ffffffffffffffffffffffffffffffffffffffff1673ffffffffffffffffffffffffffffffffffffffff16815260200190815260200160002054905081811015611758576040517f08c379a000000000000000000000000000000000000000000000000000000000815260040161174f90611e57565b60405180910390fd5b8181036000808673ffffffffffffffffffffffffffffffffffffffff1673ffffffffffffffffffffffffffffffffffffffff16815260200190815260200160002081905550816000808573ffffffffffffffffffffffffffffffffffffffff1673ffffffffffffffffffffffffffffffffffffffff16815260200190815260200160002060008282546117eb9190611ff2565b925050819055508273ffffffffffffffffffffffffffffffffffffffff168473ffffffffffffffffffffffffffffffffffffffff167fddf252ad1be2c89b69c2b068fc378daa952ba7f163c4a11628f55a4df523b3ef8460405161184f9190611f77565b60405180910390a3611862848484611a54565b50505050565b600080600c60003373ffffffffffffffffffffffffffffffffffffffff1673ffffffffffffffffffffffffffffffffffffffff1681526020019081526020016000206001015490506000429050600082826118c391906120d3565b905060006220148082876118d79190612079565b6118e19190612048565b905080945050505050919050565b600073ffffffffffffffffffffffffffffffffffffffff168273ffffffffffffffffffffffffffffffffffffffff16141561195f576040517f08c379a000000000000000000000000000000000000000000000000000000000815260040161195690611f57565b60405180910390fd5b61196b60008383611a4f565b806002600082825461197d9190611ff2565b92505081905550806000808473ffffffffffffffffffffffffffffffffffffffff1673ffffffffffffffffffffffffffffffffffffffff16815260200190815260200160002060008282546119d29190611ff2565b925050819055508173ffffffffffffffffffffffffffffffffffffffff16600073ffffffffffffffffffffffffffffffffffffffff167fddf252ad1be2c89b69c2b068fc378daa952ba7f163c4a11628f55a4df523b3ef83604051611a379190611f77565b60405180910390a3611a4b60008383611a54565b5050565b505050565b505050565b600081359050611a68816125f2565b92915050565b600081359050611a7d81612609565b92915050565b600060208284031215611a9957611a9861224e565b5b6000611aa784828501611a59565b91505092915050565b60008060408385031215611ac757611ac661224e565b5b6000611ad585828601611a59565b9250506020611ae685828601611a59565b9150509250929050565b600080600060608486031215611b0957611b0861224e565b5b6000611b1786828701611a59565b9350506020611b2886828701611a59565b9250506040611b3986828701611a6e565b9150509250925092565b60008060408385031215611b5a57611b5961224e565b5b6000611b6885828601611a59565b9250506020611b7985828601611a6e565b9150509250929050565b600060208284031215611b9957611b9861224e565b5b6000611ba784828501611a6e565b91505092915050565b611bb981612119565b82525050565b6000611bca82611fd6565b611bd48185611fe1565b9350611be481856020860161215c565b611bed81612253565b840191505092915050565b6000611c05602383611fe1565b9150611c1082612264565b604082019050919050565b6000611c28602283611fe1565b9150611c33826122b3565b604082019050919050565b6000611c4b602283611fe1565b9150611c5682612302565b604082019050919050565b6000611c6e602683611fe1565b9150611c7982612351565b604082019050919050565b6000611c91602b83611fe1565b9150611c9c826123a0565b604082019050919050565b6000611cb4602883611fe1565b9150611cbf826123ef565b604082019050919050565b6000611cd7602183611fe1565b9150611ce28261243e565b604082019050919050565b6000611cfa602583611fe1565b9150611d058261248d565b604082019050919050565b6000611d1d602483611fe1565b9150611d28826124dc565b604082019050919050565b6000611d40602883611fe1565b9150611d4b8261252b565b604082019050919050565b6000611d63602583611fe1565b9150611d6e8261257a565b604082019050919050565b6000611d86601f83611fe1565b9150611d91826125c9565b602082019050919050565b611da581612145565b82525050565b611db48161214f565b82525050565b6000602082019050611dcf6000830184611bb0565b92915050565b60006020820190508181036000830152611def8184611bbf565b905092915050565b60006020820190508181036000830152611e1081611bf8565b9050919050565b60006020820190508181036000830152611e3081611c1b565b9050919050565b60006020820190508181036000830152611e5081611c3e565b9050919050565b60006020820190508181036000830152611e7081611c61565b9050919050565b60006020820190508181036000830152611e9081611c84565b9050919050565b60006020820190508181036000830152611eb081611ca7565b9050919050565b60006020820190508181036000830152611ed081611cca565b9050919050565b60006020820190508181036000830152611ef081611ced565b9050919050565b60006020820190508181036000830152611f1081611d10565b9050919050565b60006020820190508181036000830152611f3081611d33565b9050919050565b60006020820190508181036000830152611f5081611d56565b9050919050565b60006020820190508181036000830152611f7081611d79565b9050919050565b6000602082019050611f8c6000830184611d9c565b92915050565b6000604082019050611fa76000830185611d9c565b611fb46020830184611d9c565b9392505050565b6000602082019050611fd06000830184611dab565b92915050565b600081519050919050565b600082825260208201905092915050565b6000611ffd82612145565b915061200883612145565b9250827fffffffffffffffffffffffffffffffffffffffffffffffffffffffffffffffff0382111561203d5761203c6121c1565b5b828201905092915050565b600061205382612145565b915061205e83612145565b92508261206e5761206d6121f0565b5b828204905092915050565b600061208482612145565b915061208f83612145565b9250817fffffffffffffffffffffffffffffffffffffffffffffffffffffffffffffffff04831182151516156120c8576120c76121c1565b5b828202905092915050565b60006120de82612145565b91506120e983612145565b9250828210156120fc576120fb6121c1565b5b828203905092915050565b600061211282612125565b9050919050565b60008115159050919050565b600073ffffffffffffffffffffffffffffffffffffffff82169050919050565b6000819050919050565b600060ff82169050919050565b60005b8381101561217a57808201518184015260208101905061215f565b83811115612189576000848401525b50505050565b600060028204905060018216806121a757607f821691505b602082108114156121bb576121ba61221f565b5b50919050565b7f4e487b7100000000000000000000000000000000000000000000000000000000600052601160045260246000fd5b7f4e487b7100000000000000000000000000000000000000000000000000000000600052601260045260246000fd5b7f4e487b7100000000000000000000000000000000000000000000000000000000600052602260045260246000fd5b600080fd5b6000601f19601f8301169050919050565b7f45524332303a207472616e7366657220746f20746865207a65726f206164647260008201527f6573730000000000000000000000000000000000000000000000000000000000602082015250565b7f45524332303a206275726e20616d6f756e7420657863656564732062616c616e60008201527f6365000000000000000000000000000000000000000000000000000000000000602082015250565b7f45524332303a20617070726f766520746f20746865207a65726f20616464726560008201527f7373000000000000000000000000000000000000000000000000000000000000602082015250565b7f45524332303a207472616e7366657220616d6f756e742065786365656473206260008201527f616c616e63650000000000000000000000000000000000000000000000000000602082015250565b7f5061796d656e7453706c69747465723a206163636f756e74206973206e6f742060008201527f647565207061796d656e74000000000000000000000000000000000000000000602082015250565b7f45524332303a207472616e7366657220616d6f756e742065786365656473206160008201527f6c6c6f77616e6365000000000000000000000000000000000000000000000000602082015250565b7f45524332303a206275726e2066726f6d20746865207a65726f2061646472657360008201527f7300000000000000000000000000000000000000000000000000000000000000602082015250565b7f45524332303a207472616e736665722066726f6d20746865207a65726f20616460008201527f6472657373000000000000000000000000000000000000000000000000000000602082015250565b7f45524332303a20617070726f76652066726f6d20746865207a65726f2061646460008201527f7265737300000000000000000000000000000000000000000000000000000000602082015250565b7f5061796d656e7453706c69747465723a206163636f756e7420686173206e6f2060008201527f6465706f73697473000000000000000000000000000000000000000000000000602082015250565b7f45524332303a2064656372656173656420616c6c6f77616e63652062656c6f7760008201527f207a65726f000000000000000000000000000000000000000000000000000000602082015250565b7f45524332303a206d696e7420746f20746865207a65726f206164647265737300600082015250565b6125fb81612107565b811461260657600080fd5b50565b61261281612145565b811461261d57600080fd5b5056fea264697066735822122011f5a6e51eaa3cae86fc9b208306823c7416bf46f77cfc81463345f25a70ad1a64736f6c63430008070033",
  "linkReferences": {},
  "deployedLinkReferences": {}
}