{
  "_format": "hh-sol-artifact-1",
  "contractName": "DeFiBank",
  "sourceName": "contracts/bank.sol",
  "abi": [
    {
      "inputs": [],
      "name": "deposited",
      "outputs": [
        {
          "internalType": "uint256",
          "name": "",
          "type": "uint256"
        }
      ],
      "stateMutability": "view",
      "type": "function"
    },
    {
      "inputs": [
        {
          "internalType": "address",
          "name": "",
          "type": "address"
        }
      ],
      "name": "deposits",
      "outputs": [
        {
          "internalType": "uint256",
          "name": "",
          "type": "uint256"
        }
      ],
      "stateMutability": "view",
      "type": "function"
    },
    {
      "inputs": [],
      "name": "dividends",
      "outputs": [
        {
          "internalType": "uint256",
          "name": "",
          "type": "uint256"
        }
      ],
      "stateMutability": "view",
      "type": "function"
    },
    {
      "inputs": [
        {
          "internalType": "uint256",
          "name": "amount",
          "type": "uint256"
        }
      ],
      "name": "getLoan",
      "outputs": [],
      "stateMutability": "nonpayable",
      "type": "function"
    },
    {
      "inputs": [],
      "name": "lended",
      "outputs": [
        {
          "internalType": "uint256",
          "name": "",
          "type": "uint256"
        }
      ],
      "stateMutability": "view",
      "type": "function"
    },
    {
      "inputs": [
        {
          "internalType": "address",
          "name": "",
          "type": "address"
        }
      ],
      "name": "loans",
      "outputs": [
        {
          "internalType": "uint256",
          "name": "amount",
          "type": "uint256"
        },
        {
          "internalType": "uint256",
          "name": "time",
          "type": "uint256"
        }
      ],
      "stateMutability": "view",
      "type": "function"
    },
    {
      "inputs": [],
      "name": "payLoan",
      "outputs": [],
      "stateMutability": "payable",
      "type": "function"
    },
    {
      "inputs": [],
      "name": "provideLiquidity",
      "outputs": [],
      "stateMutability": "payable",
      "type": "function"
    },
    {
      "inputs": [],
      "name": "viewLoanAmount",
      "outputs": [
        {
          "internalType": "uint256",
          "name": "",
          "type": "uint256"
        }
      ],
      "stateMutability": "view",
      "type": "function"
    },
    {
      "inputs": [
        {
          "internalType": "uint256",
          "name": "amount",
          "type": "uint256"
        }
      ],
      "name": "withdraw",
      "outputs": [],
      "stateMutability": "nonpayable",
      "type": "function"
    }
  ],
  "bytecode": "0x608060405234801561001057600080fd5b50610a30806100206000396000f3fe6080604052600436106100915760003560e01c8063504006ca11610059578063504006ca1461014a57806360c97b221461017357806373b4086b1461017d578063eef49ee3146101bb578063fc7e286d146101e657610091565b806315d0e1d0146100965780632e1a7d4d146100c15780632f765d81146100ea57806335d9740514610115578063472eb03d14610140575b600080fd5b3480156100a257600080fd5b506100ab610223565b6040516100b891906107d4565b60405180910390f35b3480156100cd57600080fd5b506100e860048036038101906100e39190610798565b610229565b005b3480156100f657600080fd5b506100ff61032d565b60405161010c91906107d4565b60405180910390f35b34801561012157600080fd5b5061012a6103a9565b60405161013791906107d4565b60405180910390f35b6101486103af565b005b34801561015657600080fd5b50610171600480360381019061016c9190610798565b61058f565b005b61017b61068f565b005b34801561018957600080fd5b506101a4600480360381019061019f919061076b565b6106ff565b6040516101b29291906107ef565b60405180910390f35b3480156101c757600080fd5b506101d0610723565b6040516101dd91906107d4565b60405180910390f35b3480156101f257600080fd5b5061020d6004803603810190610208919061076b565b610729565b60405161021a91906107d4565b60405180910390f35b60015481565b80600460003373ffffffffffffffffffffffffffffffffffffffff1673ffffffffffffffffffffffffffffffffffffffff16815260200190815260200160002054101561027557600080fd5b80600460003373ffffffffffffffffffffffffffffffffffffffff1673ffffffffffffffffffffffffffffffffffffffff16815260200190815260200160002060008282546102c491906108f9565b92505081905550806000808282546102dc91906108f9565b925050819055503373ffffffffffffffffffffffffffffffffffffffff166108fc829081150290604051600060405180830381858888f19350505050158015610329573d6000803e3d6000fd5b5050565b60008060015460005461034091906108f9565b9050600081600360003373ffffffffffffffffffffffffffffffffffffffff1673ffffffffffffffffffffffffffffffffffffffff16815260200190815260200160002060000154600054610395919061089f565b61039f919061086e565b9050809250505090565b60025481565b60006001546000546103c191906108f9565b9050600081600360003373ffffffffffffffffffffffffffffffffffffffff1673ffffffffffffffffffffffffffffffffffffffff16815260200190815260200160002060000154600054610416919061089f565b610420919061086e565b90508034101561042f57600080fd5b600360003373ffffffffffffffffffffffffffffffffffffffff1673ffffffffffffffffffffffffffffffffffffffff168152602001908152602001600020600001548161047d91906108f9565b6002600082825461048e9190610818565b92505081905550600360003373ffffffffffffffffffffffffffffffffffffffff1673ffffffffffffffffffffffffffffffffffffffff16815260200190815260200160002060000154600160008282546104e991906108f9565b92505081905550600360003373ffffffffffffffffffffffffffffffffffffffff1673ffffffffffffffffffffffffffffffffffffffff16815260200190815260200160002060000154600360003373ffffffffffffffffffffffffffffffffffffffff1673ffffffffffffffffffffffffffffffffffffffff168152602001908152602001600020600001600082825461058491906108f9565b925050819055505050565b60005481111561059e57600080fd5b80600360003373ffffffffffffffffffffffffffffffffffffffff1673ffffffffffffffffffffffffffffffffffffffff1681526020019081526020016000206000018190555042600360003373ffffffffffffffffffffffffffffffffffffffff1673ffffffffffffffffffffffffffffffffffffffff16815260200190815260200160002060010181905550806001600082825461063e9190610818565b925050819055503373ffffffffffffffffffffffffffffffffffffffff166108fc829081150290604051600060405180830381858888f1935050505015801561068b573d6000803e3d6000fd5b5050565b34600460003373ffffffffffffffffffffffffffffffffffffffff1673ffffffffffffffffffffffffffffffffffffffff16815260200190815260200160002060008282546106de9190610818565b92505081905550346000808282546106f69190610818565b92505081905550565b60036020528060005260406000206000915090508060000154908060010154905082565b60005481565b60046020528060005260406000206000915090505481565b600081359050610750816109cc565b92915050565b600081359050610765816109e3565b92915050565b600060208284031215610781576107806109c7565b5b600061078f84828501610741565b91505092915050565b6000602082840312156107ae576107ad6109c7565b5b60006107bc84828501610756565b91505092915050565b6107ce8161095f565b82525050565b60006020820190506107e960008301846107c5565b92915050565b600060408201905061080460008301856107c5565b61081160208301846107c5565b9392505050565b60006108238261095f565b915061082e8361095f565b9250827fffffffffffffffffffffffffffffffffffffffffffffffffffffffffffffffff0382111561086357610862610969565b5b828201905092915050565b60006108798261095f565b91506108848361095f565b92508261089457610893610998565b5b828204905092915050565b60006108aa8261095f565b91506108b58361095f565b9250817fffffffffffffffffffffffffffffffffffffffffffffffffffffffffffffffff04831182151516156108ee576108ed610969565b5b828202905092915050565b60006109048261095f565b915061090f8361095f565b92508282101561092257610921610969565b5b828203905092915050565b60006109388261093f565b9050919050565b600073ffffffffffffffffffffffffffffffffffffffff82169050919050565b6000819050919050565b7f4e487b7100000000000000000000000000000000000000000000000000000000600052601160045260246000fd5b7f4e487b7100000000000000000000000000000000000000000000000000000000600052601260045260246000fd5b600080fd5b6109d58161092d565b81146109e057600080fd5b50565b6109ec8161095f565b81146109f757600080fd5b5056fea26469706673582212200fd4f579b9c71386f3c6f55899a096c10557f396487760d276a86cf1954df1b664736f6c63430008070033",
  "linkReferences": {},
  "deployedLinkReferences": {}
}