{
  "_format": "hh-sol-artifact-1",
  "contractName": "DeFiBank",
  "sourceName": "contracts/bank.sol",
  "abi": [
    {
      "anonymous": false,
      "inputs": [
        {
          "indexed": true,
          "internalType": "address",
          "name": "owner",
          "type": "address"
        },
        {
          "indexed": true,
          "internalType": "address",
          "name": "spender",
          "type": "address"
        },
        {
          "indexed": false,
          "internalType": "uint256",
          "name": "value",
          "type": "uint256"
        }
      ],
      "name": "Approval",
      "type": "event"
    },
    {
      "anonymous": false,
      "inputs": [
        {
          "indexed": true,
          "internalType": "address",
          "name": "from",
          "type": "address"
        },
        {
          "indexed": true,
          "internalType": "address",
          "name": "to",
          "type": "address"
        },
        {
          "indexed": false,
          "internalType": "uint256",
          "name": "value",
          "type": "uint256"
        }
      ],
      "name": "Transfer",
      "type": "event"
    },
    {
      "inputs": [
        {
          "internalType": "address",
          "name": "owner",
          "type": "address"
        },
        {
          "internalType": "address",
          "name": "spender",
          "type": "address"
        }
      ],
      "name": "allowance",
      "outputs": [
        {
          "internalType": "uint256",
          "name": "",
          "type": "uint256"
        }
      ],
      "stateMutability": "view",
      "type": "function"
    },
    {
      "inputs": [
        {
          "internalType": "address",
          "name": "spender",
          "type": "address"
        },
        {
          "internalType": "uint256",
          "name": "amount",
          "type": "uint256"
        }
      ],
      "name": "approve",
      "outputs": [
        {
          "internalType": "bool",
          "name": "",
          "type": "bool"
        }
      ],
      "stateMutability": "nonpayable",
      "type": "function"
    },
    {
      "inputs": [
        {
          "internalType": "address",
          "name": "account",
          "type": "address"
        }
      ],
      "name": "balanceOf",
      "outputs": [
        {
          "internalType": "uint256",
          "name": "",
          "type": "uint256"
        }
      ],
      "stateMutability": "view",
      "type": "function"
    },
    {
      "inputs": [],
      "name": "decimals",
      "outputs": [
        {
          "internalType": "uint8",
          "name": "",
          "type": "uint8"
        }
      ],
      "stateMutability": "view",
      "type": "function"
    },
    {
      "inputs": [
        {
          "internalType": "address",
          "name": "spender",
          "type": "address"
        },
        {
          "internalType": "uint256",
          "name": "subtractedValue",
          "type": "uint256"
        }
      ],
      "name": "decreaseAllowance",
      "outputs": [
        {
          "internalType": "bool",
          "name": "",
          "type": "bool"
        }
      ],
      "stateMutability": "nonpayable",
      "type": "function"
    },
    {
      "inputs": [],
      "name": "deposited",
      "outputs": [
        {
          "internalType": "uint256",
          "name": "",
          "type": "uint256"
        }
      ],
      "stateMutability": "view",
      "type": "function"
    },
    {
      "inputs": [
        {
          "internalType": "address",
          "name": "",
          "type": "address"
        }
      ],
      "name": "deposits",
      "outputs": [
        {
          "internalType": "uint256",
          "name": "",
          "type": "uint256"
        }
      ],
      "stateMutability": "view",
      "type": "function"
    },
    {
      "inputs": [],
      "name": "dividends",
      "outputs": [
        {
          "internalType": "uint256",
          "name": "",
          "type": "uint256"
        }
      ],
      "stateMutability": "view",
      "type": "function"
    },
    {
      "inputs": [
        {
          "internalType": "uint256",
          "name": "amount",
          "type": "uint256"
        }
      ],
      "name": "getLoan",
      "outputs": [],
      "stateMutability": "nonpayable",
      "type": "function"
    },
    {
      "inputs": [
        {
          "internalType": "address",
          "name": "spender",
          "type": "address"
        },
        {
          "internalType": "uint256",
          "name": "addedValue",
          "type": "uint256"
        }
      ],
      "name": "increaseAllowance",
      "outputs": [
        {
          "internalType": "bool",
          "name": "",
          "type": "bool"
        }
      ],
      "stateMutability": "nonpayable",
      "type": "function"
    },
    {
      "inputs": [],
      "name": "lended",
      "outputs": [
        {
          "internalType": "uint256",
          "name": "",
          "type": "uint256"
        }
      ],
      "stateMutability": "view",
      "type": "function"
    },
    {
      "inputs": [
        {
          "internalType": "address",
          "name": "",
          "type": "address"
        }
      ],
      "name": "loans",
      "outputs": [
        {
          "internalType": "uint256",
          "name": "amount",
          "type": "uint256"
        },
        {
          "internalType": "uint256",
          "name": "time",
          "type": "uint256"
        }
      ],
      "stateMutability": "view",
      "type": "function"
    },
    {
      "inputs": [],
      "name": "name",
      "outputs": [
        {
          "internalType": "string",
          "name": "",
          "type": "string"
        }
      ],
      "stateMutability": "view",
      "type": "function"
    },
    {
      "inputs": [],
      "name": "payLoan",
      "outputs": [],
      "stateMutability": "payable",
      "type": "function"
    },
    {
      "inputs": [],
      "name": "provideLiquidity",
      "outputs": [],
      "stateMutability": "payable",
      "type": "function"
    },
    {
      "inputs": [],
      "name": "symbol",
      "outputs": [
        {
          "internalType": "string",
          "name": "",
          "type": "string"
        }
      ],
      "stateMutability": "view",
      "type": "function"
    },
    {
      "inputs": [],
      "name": "totalReleased",
      "outputs": [
        {
          "internalType": "uint256",
          "name": "",
          "type": "uint256"
        }
      ],
      "stateMutability": "view",
      "type": "function"
    },
    {
      "inputs": [],
      "name": "totalSupply",
      "outputs": [
        {
          "internalType": "uint256",
          "name": "",
          "type": "uint256"
        }
      ],
      "stateMutability": "view",
      "type": "function"
    },
    {
      "inputs": [
        {
          "internalType": "address",
          "name": "recipient",
          "type": "address"
        },
        {
          "internalType": "uint256",
          "name": "amount",
          "type": "uint256"
        }
      ],
      "name": "transfer",
      "outputs": [
        {
          "internalType": "bool",
          "name": "",
          "type": "bool"
        }
      ],
      "stateMutability": "nonpayable",
      "type": "function"
    },
    {
      "inputs": [
        {
          "internalType": "address",
          "name": "sender",
          "type": "address"
        },
        {
          "internalType": "address",
          "name": "recipient",
          "type": "address"
        },
        {
          "internalType": "uint256",
          "name": "amount",
          "type": "uint256"
        }
      ],
      "name": "transferFrom",
      "outputs": [
        {
          "internalType": "bool",
          "name": "",
          "type": "bool"
        }
      ],
      "stateMutability": "nonpayable",
      "type": "function"
    },
    {
      "inputs": [],
      "name": "viewLoanAmount",
      "outputs": [
        {
          "internalType": "uint256",
          "name": "",
          "type": "uint256"
        }
      ],
      "stateMutability": "view",
      "type": "function"
    },
    {
      "inputs": [],
      "name": "withdrawEarnings",
      "outputs": [],
      "stateMutability": "nonpayable",
      "type": "function"
    },
    {
      "inputs": [
        {
          "internalType": "uint256",
          "name": "amount",
          "type": "uint256"
        }
      ],
      "name": "withdrawLiquidity",
      "outputs": [],
      "stateMutability": "nonpayable",
      "type": "function"
    }
  ],
  "bytecode": "0x60806040526040518060400160405280600d81526020017f5269656d616e6e20546f6b656e00000000000000000000000000000000000000815250600590805190602001906200005192919062000290565b506040518060400160405280600481526020017f72544f4b00000000000000000000000000000000000000000000000000000000815250600690805190602001906200009f92919062000290565b506000600755348015620000b257600080fd5b5060056003908054620000c590620004c7565b620000d292919062000321565b5060066004908054620000e590620004c7565b620000f292919062000321565b5062000107336007546200010d60201b60201c565b62000584565b600073ffffffffffffffffffffffffffffffffffffffff168273ffffffffffffffffffffffffffffffffffffffff16141562000180576040517f08c379a0000000000000000000000000000000000000000000000000000000008152600401620001779062000410565b60405180910390fd5b62000194600083836200028660201b60201c565b8060026000828254620001a8919062000460565b92505081905550806000808473ffffffffffffffffffffffffffffffffffffffff1673ffffffffffffffffffffffffffffffffffffffff1681526020019081526020016000206000828254620001ff919062000460565b925050819055508173ffffffffffffffffffffffffffffffffffffffff16600073ffffffffffffffffffffffffffffffffffffffff167fddf252ad1be2c89b69c2b068fc378daa952ba7f163c4a11628f55a4df523b3ef8360405162000266919062000432565b60405180910390a362000282600083836200028b60201b60201c565b5050565b505050565b505050565b8280546200029e90620004c7565b90600052602060002090601f016020900481019282620002c257600085556200030e565b82601f10620002dd57805160ff19168380011785556200030e565b828001600101855582156200030e579182015b828111156200030d578251825591602001919060010190620002f0565b5b5090506200031d9190620003b9565b5090565b8280546200032f90620004c7565b90600052602060002090601f016020900481019282620003535760008555620003a6565b82601f10620003665780548555620003a6565b82800160010185558215620003a657600052602060002091601f016020900482015b82811115620003a557825482559160010191906001019062000388565b5b509050620003b59190620003b9565b5090565b5b80821115620003d4576000816000905550600101620003ba565b5090565b6000620003e7601f836200044f565b9150620003f4826200055b565b602082019050919050565b6200040a81620004bd565b82525050565b600060208201905081810360008301526200042b81620003d8565b9050919050565b6000602082019050620004496000830184620003ff565b92915050565b600082825260208201905092915050565b60006200046d82620004bd565b91506200047a83620004bd565b9250827fffffffffffffffffffffffffffffffffffffffffffffffffffffffffffffffff03821115620004b257620004b1620004fd565b5b828201905092915050565b6000819050919050565b60006002820490506001821680620004e057607f821691505b60208210811415620004f757620004f66200052c565b5b50919050565b7f4e487b7100000000000000000000000000000000000000000000000000000000600052601160045260246000fd5b7f4e487b7100000000000000000000000000000000000000000000000000000000600052602260045260246000fd5b7f45524332303a206d696e7420746f20746865207a65726f206164647265737300600082015250565b61262380620005946000396000f3fe6080604052600436106101405760003560e01c8063504006ca116100b6578063a9059cbb1161006f578063a9059cbb14610447578063b73c6ce914610484578063dd62ed3e1461049b578063e33b7de3146104d8578063eef49ee314610503578063fc7e286d1461052e57610140565b8063504006ca1461033157806360c97b221461035a57806370a082311461036457806373b4086b146103a157806395d89b41146103df578063a457c2d71461040a57610140565b806323b872dd1161010857806323b872dd1461022c5780632f765d8114610269578063313ce5671461029457806335d97405146102bf57806339509351146102ea578063472eb03d1461032757610140565b806306fdde0314610145578063095ea7b3146101705780630a861f2a146101ad57806315d0e1d0146101d657806318160ddd14610201575b600080fd5b34801561015157600080fd5b5061015a61056b565b6040516101679190611da2565b60405180910390f35b34801561017c57600080fd5b5061019760048036038101906101929190611b10565b6105fd565b6040516101a49190611d87565b60405180910390f35b3480156101b957600080fd5b506101d460048036038101906101cf9190611b50565b61061b565b005b3480156101e257600080fd5b506101eb61072a565b6040516101f89190611f44565b60405180910390f35b34801561020d57600080fd5b50610216610730565b6040516102239190611f44565b60405180910390f35b34801561023857600080fd5b50610253600480360381019061024e9190611abd565b61073a565b6040516102609190611d87565b60405180910390f35b34801561027557600080fd5b5061027e610859565b60405161028b9190611f44565b60405180910390f35b3480156102a057600080fd5b506102a9610908565b6040516102b69190611f88565b60405180910390f35b3480156102cb57600080fd5b506102d4610911565b6040516102e19190611f44565b60405180910390f35b3480156102f657600080fd5b50610311600480360381019061030c9190611b10565b610917565b60405161031e9190611d87565b60405180910390f35b61032f6109c3565b005b34801561033d57600080fd5b5061035860048036038101906103539190611b50565b610ba3565b005b610362610ca3565b005b34801561037057600080fd5b5061038b60048036038101906103869190611a50565b610d1e565b6040516103989190611f44565b60405180910390f35b3480156103ad57600080fd5b506103c860048036038101906103c39190611a50565b610d66565b6040516103d6929190611f5f565b60405180910390f35b3480156103eb57600080fd5b506103f4610d8a565b6040516104019190611da2565b60405180910390f35b34801561041657600080fd5b50610431600480360381019061042c9190611b10565b610e1c565b60405161043e9190611d87565b60405180910390f35b34801561045357600080fd5b5061046e60048036038101906104699190611b10565b610f07565b60405161047b9190611d87565b60405180910390f35b34801561049057600080fd5b50610499610f25565b005b3480156104a757600080fd5b506104c260048036038101906104bd9190611a7d565b61115f565b6040516104cf9190611f44565b60405180910390f35b3480156104e457600080fd5b506104ed6111e6565b6040516104fa9190611f44565b60405180910390f35b34801561050f57600080fd5b506105186111ec565b6040516105259190611f44565b60405180910390f35b34801561053a57600080fd5b5061055560048036038101906105509190611a50565b6111f2565b6040516105629190611f44565b60405180910390f35b60606003805461057a9061215c565b80601f01602080910402602001604051908101604052809291908181526020018280546105a69061215c565b80156105f35780601f106105c8576101008083540402835291602001916105f3565b820191906000526020600020905b8154815290600101906020018083116105d657829003601f168201915b5050505050905090565b600061061161060a61120a565b8484611212565b6001905092915050565b80600d60003373ffffffffffffffffffffffffffffffffffffffff1673ffffffffffffffffffffffffffffffffffffffff16815260200190815260200160002054101561066757600080fd5b80600d60003373ffffffffffffffffffffffffffffffffffffffff1673ffffffffffffffffffffffffffffffffffffffff16815260200190815260200160002060008282546106b691906120a0565b9250508190555080600860008282546106cf91906120a0565b925050819055506106e033826113dd565b3373ffffffffffffffffffffffffffffffffffffffff166108fc829081150290604051600060405180830381858888f19350505050158015610726573d6000803e3d6000fd5b5050565b60095481565b6000600254905090565b600080600160008673ffffffffffffffffffffffffffffffffffffffff1673ffffffffffffffffffffffffffffffffffffffff168152602001908152602001600020600061078661120a565b73ffffffffffffffffffffffffffffffffffffffff1673ffffffffffffffffffffffffffffffffffffffff1681526020019081526020016000205490507fffffffffffffffffffffffffffffffffffffffffffffffffffffffffffffffff8114610842578281101561082d576040517f08c379a000000000000000000000000000000000000000000000000000000000815260040161082490611e64565b60405180910390fd5b6108418561083961120a565b858403611212565b5b61084d8585856115b4565b60019150509392505050565b60008060095460085461086c91906120a0565b90506000600c60003373ffffffffffffffffffffffffffffffffffffffff1673ffffffffffffffffffffffffffffffffffffffff168152602001908152602001600020600001549050600082826008546108c69190612046565b6108d09190612015565b9050600082826108e091906120a0565b905060006108ed82611835565b905080836108fb9190611fbf565b9250829550505050505090565b60006012905090565b600a5481565b60006109b961092461120a565b84846001600061093261120a565b73ffffffffffffffffffffffffffffffffffffffff1673ffffffffffffffffffffffffffffffffffffffff16815260200190815260200160002060008873ffffffffffffffffffffffffffffffffffffffff1673ffffffffffffffffffffffffffffffffffffffff168152602001908152602001600020546109b49190611fbf565b611212565b6001905092915050565b60006009546008546109d591906120a0565b9050600081600c60003373ffffffffffffffffffffffffffffffffffffffff1673ffffffffffffffffffffffffffffffffffffffff16815260200190815260200160002060000154600854610a2a9190612046565b610a349190612015565b905080341015610a4357600080fd5b600c60003373ffffffffffffffffffffffffffffffffffffffff1673ffffffffffffffffffffffffffffffffffffffff1681526020019081526020016000206000015481610a9191906120a0565b600a6000828254610aa29190611fbf565b92505081905550600c60003373ffffffffffffffffffffffffffffffffffffffff1673ffffffffffffffffffffffffffffffffffffffff1681526020019081526020016000206000015460096000828254610afd91906120a0565b92505081905550600c60003373ffffffffffffffffffffffffffffffffffffffff1673ffffffffffffffffffffffffffffffffffffffff16815260200190815260200160002060000154600c60003373ffffffffffffffffffffffffffffffffffffffff1673ffffffffffffffffffffffffffffffffffffffff1681526020019081526020016000206000016000828254610b9891906120a0565b925050819055505050565b600854811115610bb257600080fd5b80600c60003373ffffffffffffffffffffffffffffffffffffffff1673ffffffffffffffffffffffffffffffffffffffff1681526020019081526020016000206000018190555042600c60003373ffffffffffffffffffffffffffffffffffffffff1673ffffffffffffffffffffffffffffffffffffffff168152602001908152602001600020600101819055508060096000828254610c529190611fbf565b925050819055503373ffffffffffffffffffffffffffffffffffffffff166108fc829081150290604051600060405180830381858888f19350505050158015610c9f573d6000803e3d6000fd5b5050565b34600d60003373ffffffffffffffffffffffffffffffffffffffff1673ffffffffffffffffffffffffffffffffffffffff1681526020019081526020016000206000828254610cf29190611fbf565b925050819055503460086000828254610d0b9190611fbf565b92505081905550610d1c33346118bc565b565b60008060008373ffffffffffffffffffffffffffffffffffffffff1673ffffffffffffffffffffffffffffffffffffffff168152602001908152602001600020549050919050565b600c6020528060005260406000206000915090508060000154908060010154905082565b606060048054610d999061215c565b80601f0160208091040260200160405190810160405280929190818152602001828054610dc59061215c565b8015610e125780601f10610de757610100808354040283529160200191610e12565b820191906000526020600020905b815481529060010190602001808311610df557829003601f168201915b5050505050905090565b60008060016000610e2b61120a565b73ffffffffffffffffffffffffffffffffffffffff1673ffffffffffffffffffffffffffffffffffffffff16815260200190815260200160002060008573ffffffffffffffffffffffffffffffffffffffff1673ffffffffffffffffffffffffffffffffffffffff16815260200190815260200160002054905082811015610ee8576040517f08c379a0000000000000000000000000000000000000000000000000000000008152600401610edf90611f04565b60405180910390fd5b610efc610ef361120a565b85858403611212565b600191505092915050565b6000610f1b610f1461120a565b84846115b4565b6001905092915050565b6000600d60003373ffffffffffffffffffffffffffffffffffffffff1673ffffffffffffffffffffffffffffffffffffffff1681526020019081526020016000205411610fa7576040517f08c379a0000000000000000000000000000000000000000000000000000000008152600401610f9e90611ee4565b60405180910390fd5b6000600b54600a54610fb99190611fbf565b90506000600e60003373ffffffffffffffffffffffffffffffffffffffff1673ffffffffffffffffffffffffffffffffffffffff16815260200190815260200160002054600854600d60003373ffffffffffffffffffffffffffffffffffffffff1673ffffffffffffffffffffffffffffffffffffffff168152602001908152602001600020548461104b9190612046565b6110559190612015565b61105f91906120a0565b905060008114156110a5576040517f08c379a000000000000000000000000000000000000000000000000000000000815260040161109c90611e44565b60405180910390fd5b80600e60003373ffffffffffffffffffffffffffffffffffffffff1673ffffffffffffffffffffffffffffffffffffffff16815260200190815260200160002060008282546110f49190611fbf565b9250508190555080600b600082825461110d9190611fbf565b925050819055503373ffffffffffffffffffffffffffffffffffffffff166108fc829081150290604051600060405180830381858888f1935050505015801561115a573d6000803e3d6000fd5b505050565b6000600160008473ffffffffffffffffffffffffffffffffffffffff1673ffffffffffffffffffffffffffffffffffffffff16815260200190815260200160002060008373ffffffffffffffffffffffffffffffffffffffff1673ffffffffffffffffffffffffffffffffffffffff16815260200190815260200160002054905092915050565b600b5481565b60085481565b600d6020528060005260406000206000915090505481565b600033905090565b600073ffffffffffffffffffffffffffffffffffffffff168373ffffffffffffffffffffffffffffffffffffffff161415611282576040517f08c379a000000000000000000000000000000000000000000000000000000000815260040161127990611ec4565b60405180910390fd5b600073ffffffffffffffffffffffffffffffffffffffff168273ffffffffffffffffffffffffffffffffffffffff1614156112f2576040517f08c379a00000000000000000000000000000000000000000000000000000000081526004016112e990611e04565b60405180910390fd5b80600160008573ffffffffffffffffffffffffffffffffffffffff1673ffffffffffffffffffffffffffffffffffffffff16815260200190815260200160002060008473ffffffffffffffffffffffffffffffffffffffff1673ffffffffffffffffffffffffffffffffffffffff168152602001908152602001600020819055508173ffffffffffffffffffffffffffffffffffffffff168373ffffffffffffffffffffffffffffffffffffffff167f8c5be1e5ebec7d5bd14f71427d1e84f3dd0314c0f7b2291e5b200ac8c7c3b925836040516113d09190611f44565b60405180910390a3505050565b600073ffffffffffffffffffffffffffffffffffffffff168273ffffffffffffffffffffffffffffffffffffffff16141561144d576040517f08c379a000000000000000000000000000000000000000000000000000000000815260040161144490611e84565b60405180910390fd5b61145982600083611a1c565b60008060008473ffffffffffffffffffffffffffffffffffffffff1673ffffffffffffffffffffffffffffffffffffffff168152602001908152602001600020549050818110156114df576040517f08c379a00000000000000000000000000000000000000000000000000000000081526004016114d690611de4565b60405180910390fd5b8181036000808573ffffffffffffffffffffffffffffffffffffffff1673ffffffffffffffffffffffffffffffffffffffff16815260200190815260200160002081905550816002600082825461153691906120a0565b92505081905550600073ffffffffffffffffffffffffffffffffffffffff168373ffffffffffffffffffffffffffffffffffffffff167fddf252ad1be2c89b69c2b068fc378daa952ba7f163c4a11628f55a4df523b3ef8460405161159b9190611f44565b60405180910390a36115af83600084611a21565b505050565b600073ffffffffffffffffffffffffffffffffffffffff168373ffffffffffffffffffffffffffffffffffffffff161415611624576040517f08c379a000000000000000000000000000000000000000000000000000000000815260040161161b90611ea4565b60405180910390fd5b600073ffffffffffffffffffffffffffffffffffffffff168273ffffffffffffffffffffffffffffffffffffffff161415611694576040517f08c379a000000000000000000000000000000000000000000000000000000000815260040161168b90611dc4565b60405180910390fd5b61169f838383611a1c565b60008060008573ffffffffffffffffffffffffffffffffffffffff1673ffffffffffffffffffffffffffffffffffffffff16815260200190815260200160002054905081811015611725576040517f08c379a000000000000000000000000000000000000000000000000000000000815260040161171c90611e24565b60405180910390fd5b8181036000808673ffffffffffffffffffffffffffffffffffffffff1673ffffffffffffffffffffffffffffffffffffffff16815260200190815260200160002081905550816000808573ffffffffffffffffffffffffffffffffffffffff1673ffffffffffffffffffffffffffffffffffffffff16815260200190815260200160002060008282546117b89190611fbf565b925050819055508273ffffffffffffffffffffffffffffffffffffffff168473ffffffffffffffffffffffffffffffffffffffff167fddf252ad1be2c89b69c2b068fc378daa952ba7f163c4a11628f55a4df523b3ef8460405161181c9190611f44565b60405180910390a361182f848484611a21565b50505050565b600080600c60003373ffffffffffffffffffffffffffffffffffffffff1673ffffffffffffffffffffffffffffffffffffffff16815260200190815260200160002060010154905060004290506000828261189091906120a0565b905060006220148082876118a49190612046565b6118ae9190612015565b905080945050505050919050565b600073ffffffffffffffffffffffffffffffffffffffff168273ffffffffffffffffffffffffffffffffffffffff16141561192c576040517f08c379a000000000000000000000000000000000000000000000000000000000815260040161192390611f24565b60405180910390fd5b61193860008383611a1c565b806002600082825461194a9190611fbf565b92505081905550806000808473ffffffffffffffffffffffffffffffffffffffff1673ffffffffffffffffffffffffffffffffffffffff168152602001908152602001600020600082825461199f9190611fbf565b925050819055508173ffffffffffffffffffffffffffffffffffffffff16600073ffffffffffffffffffffffffffffffffffffffff167fddf252ad1be2c89b69c2b068fc378daa952ba7f163c4a11628f55a4df523b3ef83604051611a049190611f44565b60405180910390a3611a1860008383611a21565b5050565b505050565b505050565b600081359050611a35816125bf565b92915050565b600081359050611a4a816125d6565b92915050565b600060208284031215611a6657611a6561221b565b5b6000611a7484828501611a26565b91505092915050565b60008060408385031215611a9457611a9361221b565b5b6000611aa285828601611a26565b9250506020611ab385828601611a26565b9150509250929050565b600080600060608486031215611ad657611ad561221b565b5b6000611ae486828701611a26565b9350506020611af586828701611a26565b9250506040611b0686828701611a3b565b9150509250925092565b60008060408385031215611b2757611b2661221b565b5b6000611b3585828601611a26565b9250506020611b4685828601611a3b565b9150509250929050565b600060208284031215611b6657611b6561221b565b5b6000611b7484828501611a3b565b91505092915050565b611b86816120e6565b82525050565b6000611b9782611fa3565b611ba18185611fae565b9350611bb1818560208601612129565b611bba81612220565b840191505092915050565b6000611bd2602383611fae565b9150611bdd82612231565b604082019050919050565b6000611bf5602283611fae565b9150611c0082612280565b604082019050919050565b6000611c18602283611fae565b9150611c23826122cf565b604082019050919050565b6000611c3b602683611fae565b9150611c468261231e565b604082019050919050565b6000611c5e602b83611fae565b9150611c698261236d565b604082019050919050565b6000611c81602883611fae565b9150611c8c826123bc565b604082019050919050565b6000611ca4602183611fae565b9150611caf8261240b565b604082019050919050565b6000611cc7602583611fae565b9150611cd28261245a565b604082019050919050565b6000611cea602483611fae565b9150611cf5826124a9565b604082019050919050565b6000611d0d602883611fae565b9150611d18826124f8565b604082019050919050565b6000611d30602583611fae565b9150611d3b82612547565b604082019050919050565b6000611d53601f83611fae565b9150611d5e82612596565b602082019050919050565b611d7281612112565b82525050565b611d818161211c565b82525050565b6000602082019050611d9c6000830184611b7d565b92915050565b60006020820190508181036000830152611dbc8184611b8c565b905092915050565b60006020820190508181036000830152611ddd81611bc5565b9050919050565b60006020820190508181036000830152611dfd81611be8565b9050919050565b60006020820190508181036000830152611e1d81611c0b565b9050919050565b60006020820190508181036000830152611e3d81611c2e565b9050919050565b60006020820190508181036000830152611e5d81611c51565b9050919050565b60006020820190508181036000830152611e7d81611c74565b9050919050565b60006020820190508181036000830152611e9d81611c97565b9050919050565b60006020820190508181036000830152611ebd81611cba565b9050919050565b60006020820190508181036000830152611edd81611cdd565b9050919050565b60006020820190508181036000830152611efd81611d00565b9050919050565b60006020820190508181036000830152611f1d81611d23565b9050919050565b60006020820190508181036000830152611f3d81611d46565b9050919050565b6000602082019050611f596000830184611d69565b92915050565b6000604082019050611f746000830185611d69565b611f816020830184611d69565b9392505050565b6000602082019050611f9d6000830184611d78565b92915050565b600081519050919050565b600082825260208201905092915050565b6000611fca82612112565b9150611fd583612112565b9250827fffffffffffffffffffffffffffffffffffffffffffffffffffffffffffffffff0382111561200a5761200961218e565b5b828201905092915050565b600061202082612112565b915061202b83612112565b92508261203b5761203a6121bd565b5b828204905092915050565b600061205182612112565b915061205c83612112565b9250817fffffffffffffffffffffffffffffffffffffffffffffffffffffffffffffffff04831182151516156120955761209461218e565b5b828202905092915050565b60006120ab82612112565b91506120b683612112565b9250828210156120c9576120c861218e565b5b828203905092915050565b60006120df826120f2565b9050919050565b60008115159050919050565b600073ffffffffffffffffffffffffffffffffffffffff82169050919050565b6000819050919050565b600060ff82169050919050565b60005b8381101561214757808201518184015260208101905061212c565b83811115612156576000848401525b50505050565b6000600282049050600182168061217457607f821691505b60208210811415612188576121876121ec565b5b50919050565b7f4e487b7100000000000000000000000000000000000000000000000000000000600052601160045260246000fd5b7f4e487b7100000000000000000000000000000000000000000000000000000000600052601260045260246000fd5b7f4e487b7100000000000000000000000000000000000000000000000000000000600052602260045260246000fd5b600080fd5b6000601f19601f8301169050919050565b7f45524332303a207472616e7366657220746f20746865207a65726f206164647260008201527f6573730000000000000000000000000000000000000000000000000000000000602082015250565b7f45524332303a206275726e20616d6f756e7420657863656564732062616c616e60008201527f6365000000000000000000000000000000000000000000000000000000000000602082015250565b7f45524332303a20617070726f766520746f20746865207a65726f20616464726560008201527f7373000000000000000000000000000000000000000000000000000000000000602082015250565b7f45524332303a207472616e7366657220616d6f756e742065786365656473206260008201527f616c616e63650000000000000000000000000000000000000000000000000000602082015250565b7f5061796d656e7453706c69747465723a206163636f756e74206973206e6f742060008201527f647565207061796d656e74000000000000000000000000000000000000000000602082015250565b7f45524332303a207472616e7366657220616d6f756e742065786365656473206160008201527f6c6c6f77616e6365000000000000000000000000000000000000000000000000602082015250565b7f45524332303a206275726e2066726f6d20746865207a65726f2061646472657360008201527f7300000000000000000000000000000000000000000000000000000000000000602082015250565b7f45524332303a207472616e736665722066726f6d20746865207a65726f20616460008201527f6472657373000000000000000000000000000000000000000000000000000000602082015250565b7f45524332303a20617070726f76652066726f6d20746865207a65726f2061646460008201527f7265737300000000000000000000000000000000000000000000000000000000602082015250565b7f5061796d656e7453706c69747465723a206163636f756e7420686173206e6f2060008201527f6465706f73697473000000000000000000000000000000000000000000000000602082015250565b7f45524332303a2064656372656173656420616c6c6f77616e63652062656c6f7760008201527f207a65726f000000000000000000000000000000000000000000000000000000602082015250565b7f45524332303a206d696e7420746f20746865207a65726f206164647265737300600082015250565b6125c8816120d4565b81146125d357600080fd5b50565b6125df81612112565b81146125ea57600080fd5b5056fea264697066735822122030e8996e137a132b4eec3b69c10dec7e4617d578f6b1b1656a972b859dc0336264736f6c63430008070033",
  "linkReferences": {},
  "deployedLinkReferences": {}
}